{
  "contractName": "SimpleStorage",
  "abi": [
    {
      "constant": false,
      "inputs": [
        {
          "internalType": "string",
          "name": "s",
          "type": "string"
        },
        {
          "internalType": "string",
          "name": "t",
          "type": "string"
        }
      ],
      "name": "setWord",
      "outputs": [],
      "payable": false,
      "stateMutability": "nonpayable",
      "type": "function"
    },
    {
      "constant": false,
      "inputs": [],
      "name": "likeWord",
      "outputs": [],
      "payable": false,
      "stateMutability": "nonpayable",
      "type": "function"
    },
    {
      "constant": true,
      "inputs": [
        {
          "internalType": "uint256",
          "name": "random",
          "type": "uint256"
        }
      ],
      "name": "getRandomWord",
      "outputs": [
        {
          "internalType": "uint256",
          "name": "",
          "type": "uint256"
        },
        {
          "internalType": "string",
          "name": "",
          "type": "string"
        },
        {
          "internalType": "address",
          "name": "",
          "type": "address"
        },
        {
          "internalType": "string",
          "name": "",
          "type": "string"
        },
        {
          "internalType": "uint256",
          "name": "",
          "type": "uint256"
        }
      ],
      "payable": false,
      "stateMutability": "view",
      "type": "function"
    },
    {
      "constant": false,
      "inputs": [
        {
          "internalType": "uint256",
          "name": "random",
          "type": "uint256"
        }
      ],
      "name": "getTopThree",
      "outputs": [
        {
          "internalType": "uint256",
          "name": "",
          "type": "uint256"
        },
        {
          "internalType": "string",
          "name": "",
          "type": "string"
        },
        {
          "internalType": "address",
          "name": "",
          "type": "address"
        },
        {
          "internalType": "string",
          "name": "",
          "type": "string"
        },
        {
          "internalType": "uint256",
          "name": "",
          "type": "uint256"
        }
      ],
      "payable": false,
      "stateMutability": "nonpayable",
      "type": "function"
    },
    {
      "constant": false,
      "inputs": [
        {
          "internalType": "string",
          "name": "x",
          "type": "string"
        }
      ],
      "name": "set",
      "outputs": [],
      "payable": false,
      "stateMutability": "nonpayable",
      "type": "function"
    },
    {
      "constant": true,
      "inputs": [],
      "name": "get",
      "outputs": [
        {
          "internalType": "string",
          "name": "",
          "type": "string"
        }
      ],
      "payable": false,
      "stateMutability": "view",
      "type": "function"
    }
  ],
  "bytecode": "0x608060405234801561001057600080fd5b506111b3806100206000396000f3fe608060405234801561001057600080fd5b50600436106100625760003560e01c80634ed3885e146100675780636d4ce63c1461012257806374ccbd7d146101a55780638c595a95146101af578063ca41d41b14610301578063cc76b91114610455575b600080fd5b6101206004803603602081101561007d57600080fd5b810190808035906020019064010000000081111561009a57600080fd5b8201836020820111156100ac57600080fd5b803590602001918460018302840111640100000000831117156100ce57600080fd5b91908080601f016020809104026020016040519081016040528093929190818152602001838380828437600081840152601f19601f8201169050808301925050505050505091929192905050506105a9565b005b61012a6105c3565b6040518080602001828103825283818151815260200191508051906020019080838360005b8381101561016a57808201518184015260208101905061014f565b50505050905090810190601f1680156101975780820380516001836020036101000a031916815260200191505b509250505060405180910390f35b6101ad610665565b005b6102ff600480360360408110156101c557600080fd5b81019080803590602001906401000000008111156101e257600080fd5b8201836020820111156101f457600080fd5b8035906020019184600183028401116401000000008311171561021657600080fd5b91908080601f016020809104026020016040519081016040528093929190818152602001838380828437600081840152601f19601f8201169050808301925050505050505091929192908035906020019064010000000081111561027957600080fd5b82018360208201111561028b57600080fd5b803590602001918460018302840111640100000000831117156102ad57600080fd5b91908080601f016020809104026020016040519081016040528093929190818152602001838380828437600081840152601f19601f820116905080830192505050505050509192919290505050610b2f565b005b61032d6004803603602081101561031757600080fd5b8101908080359060200190929190505050610c26565b60405180868152602001806020018573ffffffffffffffffffffffffffffffffffffffff1673ffffffffffffffffffffffffffffffffffffffff16815260200180602001848152602001838103835287818151815260200191508051906020019080838360005b838110156103af578082015181840152602081019050610394565b50505050905090810190601f1680156103dc5780820380516001836020036101000a031916815260200191505b50838103825285818151815260200191508051906020019080838360005b838110156104155780820151818401526020810190506103fa565b50505050905090810190601f1680156104425780820380516001836020036101000a031916815260200191505b5097505050505050505060405180910390f35b6104816004803603602081101561046b57600080fd5b8101908080359060200190929190505050610e21565b60405180868152602001806020018573ffffffffffffffffffffffffffffffffffffffff1673ffffffffffffffffffffffffffffffffffffffff16815260200180602001848152602001838103835287818151815260200191508051906020019080838360005b838110156105035780820151818401526020810190506104e8565b50505050905090810190601f1680156105305780820380516001836020036101000a031916815260200191505b50838103825285818151815260200191508051906020019080838360005b8381101561056957808201518184015260208101905061054e565b50505050905090810190601f1680156105965780820380516001836020036101000a031916815260200191505b5097505050505050505060405180910390f35b80600290805190602001906105bf92919061101b565b5050565b606060028054600181600116156101000203166002900480601f01602080910402602001604051908101604052809291908181526020018280546001816001161561010002031660029004801561065b5780601f106106305761010080835404028352916020019161065b565b820191906000526020600020905b81548152906001019060200180831161063e57829003601f168201915b5050505050905090565b61066d61109b565b60008090505b600080549050811015610910573373ffffffffffffffffffffffffffffffffffffffff16600082815481106106a457fe5b906000526020600020906004020160010160009054906101000a900473ffffffffffffffffffffffffffffffffffffffff1673ffffffffffffffffffffffffffffffffffffffff1614156109035760016000828154811061070157fe5b906000526020600020906004020160030154016000828154811061072157fe5b9060005260206000209060040201600301819055506000818154811061074357fe5b9060005260206000209060040201604051806080016040529081600082018054600181600116156101000203166002900480601f0160208091040260200160405190810160405280929190818152602001828054600181600116156101000203166002900480156107f55780601f106107ca576101008083540402835291602001916107f5565b820191906000526020600020905b8154815290600101906020018083116107d857829003601f168201915b505050505081526020016001820160009054906101000a900473ffffffffffffffffffffffffffffffffffffffff1673ffffffffffffffffffffffffffffffffffffffff1673ffffffffffffffffffffffffffffffffffffffff168152602001600282018054600181600116156101000203166002900480601f0160208091040260200160405190810160405280929190818152602001828054600181600116156101000203166002900480156108ed5780601f106108c2576101008083540402835291602001916108ed565b820191906000526020600020905b8154815290600101906020018083116108d057829003601f168201915b5050505050815260200160038201548152505091505b8080600101915050610673565b50600360018054905010156109e0576001819080600181540180825580915050906001820390600052602060002090600402016000909192909190915060008201518160000190805190602001906109699291906110d9565b5060208201518160010160006101000a81548173ffffffffffffffffffffffffffffffffffffffff021916908373ffffffffffffffffffffffffffffffffffffffff16021790555060408201518160020190805190602001906109cd9291906110d9565b5060608201518160030155505050610b2c565b600060016000815481106109f057fe5b906000526020600020906004020160030154905060008090506000600190505b6003811015610a715760018181548110610a2657fe5b906000526020600020906004020160030154831115610a645760018181548110610a4c57fe5b90600052602060002090600402016003015492508091505b8080600101915050610a10565b508183606001511115610b29578260018281548110610a8c57fe5b90600052602060002090600402016000820151816000019080519060200190610ab69291906110d9565b5060208201518160010160006101000a81548173ffffffffffffffffffffffffffffffffffffffff021916908373ffffffffffffffffffffffffffffffffffffffff1602179055506040820151816002019080519060200190610b1a9291906110d9565b50606082015181600301559050505b50505b50565b600060405180608001604052808481526020013373ffffffffffffffffffffffffffffffffffffffff1681526020018381526020016000815250908060018154018082558091505090600182039060005260206000209060040201600090919290919091506000820151816000019080519060200190610bb09291906110d9565b5060208201518160010160006101000a81548173ffffffffffffffffffffffffffffffffffffffff021916908373ffffffffffffffffffffffffffffffffffffffff1602179055506040820151816002019080519060200190610c149291906110d9565b50606082015181600301555050505050565b60006060600060606000806001805490501415610c7d576000336000829250604051806020016040528060008152509190819150604051806020016040528060008152509080905094509450945094509450610e18565b600060018781548110610c8c57fe5b90600052602060002090600402019050600180549050816000018260010160009054906101000a900473ffffffffffffffffffffffffffffffffffffffff16836002018460030154838054600181600116156101000203166002900480601f016020809104026020016040519081016040528092919081815260200182805460018160011615610100020316600290048015610d695780601f10610d3e57610100808354040283529160200191610d69565b820191906000526020600020905b815481529060010190602001808311610d4c57829003601f168201915b50505050509350818054600181600116156101000203166002900480601f016020809104026020016040519081016040528092919081815260200182805460018160011615610100020316600290048015610e055780601f10610dda57610100808354040283529160200191610e05565b820191906000526020600020905b815481529060010190602001808311610de857829003601f168201915b5050505050915095509550955095509550505b91939590929450565b60006060600060606000806000805490501415610e78576000336000829250604051806020016040528060008152509190819150604051806020016040528060008152509080905094509450945094509450611012565b6000808781548110610e8657fe5b90600052602060002090600402019050600080549050816000018260010160009054906101000a900473ffffffffffffffffffffffffffffffffffffffff16836002018460030154838054600181600116156101000203166002900480601f016020809104026020016040519081016040528092919081815260200182805460018160011615610100020316600290048015610f635780601f10610f3857610100808354040283529160200191610f63565b820191906000526020600020905b815481529060010190602001808311610f4657829003601f168201915b50505050509350818054600181600116156101000203166002900480601f016020809104026020016040519081016040528092919081815260200182805460018160011615610100020316600290048015610fff5780601f10610fd457610100808354040283529160200191610fff565b820191906000526020600020905b815481529060010190602001808311610fe257829003601f168201915b5050505050915095509550955095509550505b91939590929450565b828054600181600116156101000203166002900490600052602060002090601f016020900481019282601f1061105c57805160ff191683800117855561108a565b8280016001018555821561108a579182015b8281111561108957825182559160200191906001019061106e565b5b5090506110979190611159565b5090565b604051806080016040528060608152602001600073ffffffffffffffffffffffffffffffffffffffff16815260200160608152602001600081525090565b828054600181600116156101000203166002900490600052602060002090601f016020900481019282601f1061111a57805160ff1916838001178555611148565b82800160010185558215611148579182015b8281111561114757825182559160200191906001019061112c565b5b5090506111559190611159565b5090565b61117b91905b8082111561117757600081600090555060010161115f565b5090565b9056fea265627a7a72315820d9d84e0ca0604a213180f2a9afbfb13f4e19089c9ca7ce802295760d2e72e03964736f6c63430005100032",
  "source": "// SPDX-License-Identifier: MIT\npragma solidity >=0.4.21 <0.7.0;\n\n\n\n\ncontract SimpleStorage {\n    struct Message {\n        string word; // 留言\n        address from; // 留言者地址\n        string timestamp; // 留言unix时间戳\n        // string imageLink;//图片Hash\n        uint256 like; //点赞数\n    }\n\n    Message[] private wordArr;\n    Message[] private topThree;\n\n    // mapping(address => uint) public writerId;\n    // uint id = 0;\n\n    function setWord(string memory s, string memory t) public {\n        wordArr.push(\n            Message({word: s, from: msg.sender, timestamp: t, like: 0})\n        );\n        /* writerId[id] = msg.sender; */\n        /* id=id+1; */\n    }\n\n    function likeWord() public {\n        // Message storage message = writerId[msg.sender];\n        // message.like = message.like + 1;\n        Message memory message;\n        for (uint256 i = 0; i < wordArr.length; i++) {\n            if (wordArr[i].from == msg.sender) {\n                wordArr[i].like = wordArr[i].like + 1;\n                message = wordArr[i];\n            }\n        }\n        if (topThree.length < 3) {\n            topThree.push(message);\n        } else {\n            uint256 min = topThree[0].like;\n            uint256 k = 0;\n            for (uint256 j = 1; j < 3; j++) {\n                if (min > topThree[j].like) {\n                    min = topThree[j].like;\n                    k = j;\n                }\n            }\n            if (message.like > min) {\n                topThree[k] = message;\n            }\n        }\n        // writerId[msg.sender].like = writerId[msg.sender].like + 1;\n        // writerId[msg.sender].like = i;\n        // return writerId[msg.sender].like;\n    }\n\n    function getRandomWord(uint256 random)\n        public\n        view\n        returns (\n            uint256,\n            string memory,\n            address,\n            string memory,\n            uint256\n        )\n    {\n        if (wordArr.length == 0) {\n            return (0, \"\", msg.sender, \"\", 0);\n        } else {\n            Message storage result = wordArr[random];\n            return (\n                wordArr.length,\n                result.word,\n                result.from,\n                result.timestamp,\n                result.like\n            );\n        }\n    }\n\n    function getTopThree(uint256 random)\n        public\n        returns (\n            uint256,\n            string memory,\n            address,\n            string memory,\n            uint256\n        )\n    {\n        if (topThree.length == 0) {\n            return (0, \"\", msg.sender, \"\", 0);\n        } else {\n            Message storage top = topThree[random];\n            return (\n                topThree.length,\n                top.word,\n                top.from,\n                top.timestamp,\n                top.like\n            );\n        }\n        // string memory first;\n        // string memory second;\n        // string memory third;\n        // if(topThree.length==0){\n        //     first = \"\";\n        //     second = \"\";\n        //     third = \"\";\n        // }else if(topThree.length==1){\n        //     first = topThree[0].word;\n        //     second = \"\";\n        //     third = \"\";\n        // }else if(topThree.length==2){\n        //     first = topThree[0].word;\n        //     second = topThree[1].word;\n        //     third = \"\";\n        // }else{\n        //     first = topThree[0].word;\n        //     second = topThree[1].word;\n        //     third = topThree[2].word;\n        // }\n\n        // return (first,second,third);\n    }\n\n    string storedData;\n\n    function set(string memory x) public {\n        storedData = x;\n    }\n\n    function get() public view returns (string memory) {\n        return storedData;\n    }\n}\n",
  "sourcePath": "/Users/chixinning/Desktop/Demo/contracts/SimpleStorage.sol",
  "compiler": {
    "name": "solc",
    "version": "0.5.16+commit.9c3226ce.Emscripten.clang"
  },
  "schemaVersion": "3.4.1",
  "updatedAt": "2021-06-15T15:41:22.217Z",
  "networkType": "ethereum",
  "devdoc": {
    "methods": {}
  },
  "userdoc": {
    "methods": {}
  }
}